{
  "contractName": "MultiSigWallet",
  "abi": [
    {
      "inputs": [
        {
          "internalType": "address[]",
          "name": "_owners",
          "type": "address[]"
        },
        {
          "internalType": "uint256",
          "name": "_required",
          "type": "uint256"
        }
      ],
      "stateMutability": "nonpayable",
      "type": "constructor"
    },
    {
      "anonymous": false,
      "inputs": [
        {
          "indexed": true,
          "internalType": "address",
          "name": "owner",
          "type": "address"
        },
        {
          "indexed": true,
          "internalType": "uint256",
          "name": "txId",
          "type": "uint256"
        }
      ],
      "name": "Approve",
      "type": "event"
    },
    {
      "anonymous": false,
      "inputs": [
        {
          "indexed": true,
          "internalType": "address",
          "name": "sender",
          "type": "address"
        },
        {
          "indexed": false,
          "internalType": "uint256",
          "name": "amount",
          "type": "uint256"
        }
      ],
      "name": "Deposit",
      "type": "event"
    },
    {
      "anonymous": false,
      "inputs": [
        {
          "indexed": true,
          "internalType": "uint256",
          "name": "txId",
          "type": "uint256"
        }
      ],
      "name": "Execute",
      "type": "event"
    },
    {
      "anonymous": false,
      "inputs": [
        {
          "indexed": true,
          "internalType": "address",
          "name": "owner",
          "type": "address"
        },
        {
          "indexed": true,
          "internalType": "uint256",
          "name": "txId",
          "type": "uint256"
        }
      ],
      "name": "Revoke",
      "type": "event"
    },
    {
      "anonymous": false,
      "inputs": [
        {
          "indexed": true,
          "internalType": "uint256",
          "name": "txId",
          "type": "uint256"
        }
      ],
      "name": "Submit",
      "type": "event"
    },
    {
      "inputs": [
        {
          "internalType": "uint256",
          "name": "",
          "type": "uint256"
        },
        {
          "internalType": "address",
          "name": "",
          "type": "address"
        }
      ],
      "name": "approved",
      "outputs": [
        {
          "internalType": "bool",
          "name": "",
          "type": "bool"
        }
      ],
      "stateMutability": "view",
      "type": "function"
    },
    {
      "inputs": [
        {
          "internalType": "address",
          "name": "",
          "type": "address"
        }
      ],
      "name": "isOwner",
      "outputs": [
        {
          "internalType": "bool",
          "name": "",
          "type": "bool"
        }
      ],
      "stateMutability": "view",
      "type": "function"
    },
    {
      "inputs": [
        {
          "internalType": "uint256",
          "name": "",
          "type": "uint256"
        }
      ],
      "name": "owners",
      "outputs": [
        {
          "internalType": "address",
          "name": "",
          "type": "address"
        }
      ],
      "stateMutability": "view",
      "type": "function"
    },
    {
      "inputs": [],
      "name": "required",
      "outputs": [
        {
          "internalType": "uint256",
          "name": "",
          "type": "uint256"
        }
      ],
      "stateMutability": "view",
      "type": "function"
    },
    {
      "inputs": [
        {
          "internalType": "uint256",
          "name": "",
          "type": "uint256"
        }
      ],
      "name": "transactions",
      "outputs": [
        {
          "internalType": "address",
          "name": "to",
          "type": "address"
        },
        {
          "internalType": "uint256",
          "name": "value",
          "type": "uint256"
        },
        {
          "internalType": "bytes",
          "name": "data",
          "type": "bytes"
        },
        {
          "internalType": "bool",
          "name": "executed",
          "type": "bool"
        }
      ],
      "stateMutability": "view",
      "type": "function"
    },
    {
      "stateMutability": "payable",
      "type": "receive"
    },
    {
      "inputs": [
        {
          "internalType": "address",
          "name": "_to",
          "type": "address"
        },
        {
          "internalType": "uint256",
          "name": "_value",
          "type": "uint256"
        },
        {
          "internalType": "bytes",
          "name": "_data",
          "type": "bytes"
        }
      ],
      "name": "submit",
      "outputs": [],
      "stateMutability": "nonpayable",
      "type": "function"
    },
    {
      "inputs": [
        {
          "internalType": "uint256",
          "name": "_txId",
          "type": "uint256"
        }
      ],
      "name": "approve",
      "outputs": [],
      "stateMutability": "nonpayable",
      "type": "function"
    },
    {
      "inputs": [
        {
          "internalType": "uint256",
          "name": "_txId",
          "type": "uint256"
        }
      ],
      "name": "execute",
      "outputs": [],
      "stateMutability": "payable",
      "type": "function"
    },
    {
      "inputs": [
        {
          "internalType": "uint256",
          "name": "_txId",
          "type": "uint256"
        }
      ],
      "name": "revoke",
      "outputs": [],
      "stateMutability": "nonpayable",
      "type": "function"
    }
  ],
  "bytecode": "0x60806040523480156200001157600080fd5b5060405162001f6138038062001f618339818101604052810190620000379190620003da565b60008251116200007e576040517f08c379a00000000000000000000000000000000000000000000000000000000081526004016200007590620005cc565b60405180910390fd5b60008111801562000090575081518111155b620000d2576040517f08c379a0000000000000000000000000000000000000000000000000000000008152600401620000c990620005ee565b60405180910390fd5b60005b8251811015620002fa5760008382815181106200011b577f4e487b7100000000000000000000000000000000000000000000000000000000600052603260045260246000fd5b60200260200101519050600073ffffffffffffffffffffffffffffffffffffffff168173ffffffffffffffffffffffffffffffffffffffff16141562000198576040517f08c379a00000000000000000000000000000000000000000000000000000000081526004016200018f90620005aa565b60405180910390fd5b600360008273ffffffffffffffffffffffffffffffffffffffff1673ffffffffffffffffffffffffffffffffffffffff16815260200190815260200160002060009054906101000a900460ff161562000228576040517f08c379a00000000000000000000000000000000000000000000000000000000081526004016200021f9062000588565b60405180910390fd5b6001600360008373ffffffffffffffffffffffffffffffffffffffff1673ffffffffffffffffffffffffffffffffffffffff16815260200190815260200160002060006101000a81548160ff0219169083151502179055506000819080600181540180825580915050600190039060005260206000200160009091909190916101000a81548173ffffffffffffffffffffffffffffffffffffffff021916908373ffffffffffffffffffffffffffffffffffffffff160217905550508080620002f190620006c2565b915050620000d5565b50806001819055505050620007a2565b6000620003216200031b8462000644565b62000610565b905080838252602082019050828560208602820111156200034157600080fd5b60005b858110156200037557816200035a88826200037f565b84526020840193506020830192505060018101905062000344565b5050509392505050565b60008151905062000390816200076e565b92915050565b600082601f830112620003a857600080fd5b8151620003ba8482602086016200030a565b91505092915050565b600081519050620003d48162000788565b92915050565b60008060408385031215620003ee57600080fd5b600083015167ffffffffffffffff8111156200040957600080fd5b620004178582860162000396565b92505060206200042a85828601620003c3565b9150509250929050565b60006200044360138362000673565b91507f6f776e6572206973206e6f7420756e69717565000000000000000000000000006000830152602082019050919050565b600062000485600f8362000673565b91507f696e76616c6964206164647265737300000000000000000000000000000000006000830152602082019050919050565b6000620004c760328362000673565b91507f6e756d626572206f66206f776e657220616464726573736573206d757374206260008301527f65206d6f7265207468616e207a65726f212100000000000000000000000000006020830152604082019050919050565b60006200052f60218362000673565b91507f696e76616c6964207265717569726564206e756d626572206f66206f776e657260008301527f73000000000000000000000000000000000000000000000000000000000000006020830152604082019050919050565b60006020820190508181036000830152620005a38162000434565b9050919050565b60006020820190508181036000830152620005c58162000476565b9050919050565b60006020820190508181036000830152620005e781620004b8565b9050919050565b60006020820190508181036000830152620006098162000520565b9050919050565b6000604051905081810181811067ffffffffffffffff821117156200063a57620006396200073f565b5b8060405250919050565b600067ffffffffffffffff8211156200066257620006616200073f565b5b602082029050602081019050919050565b600082825260208201905092915050565b6000620006918262000698565b9050919050565b600073ffffffffffffffffffffffffffffffffffffffff82169050919050565b6000819050919050565b6000620006cf82620006b8565b91507fffffffffffffffffffffffffffffffffffffffffffffffffffffffffffffffff82141562000705576200070462000710565b5b600182019050919050565b7f4e487b7100000000000000000000000000000000000000000000000000000000600052601160045260246000fd5b7f4e487b7100000000000000000000000000000000000000000000000000000000600052604160045260246000fd5b620007798162000684565b81146200078557600080fd5b50565b6200079381620006b8565b81146200079f57600080fd5b50565b6117af80620007b26000396000f3fe60806040526004361061008a5760003560e01c80638253951a116100595780638253951a146101b05780639ace38c2146101ed578063b759f9541461022d578063dc8452cd14610256578063fe0d94c114610281576100df565b8063025e7c27146100e457806314de327f1461012157806320c5429b1461014a5780632f54bf6e14610173576100df565b366100df573373ffffffffffffffffffffffffffffffffffffffff167fe1fffcc4923d04b559f4d29a8bfc6cda04eb5b0d3c460751c2402c5c5cc9109c346040516100d591906114f4565b60405180910390a2005b600080fd5b3480156100f057600080fd5b5061010b600480360381019061010691906110d1565b61029d565b60405161011891906113b2565b60405180910390f35b34801561012d57600080fd5b5061014860048036038101906101439190611065565b6102dc565b005b34801561015657600080fd5b50610171600480360381019061016c91906110d1565b6104e5565b005b34801561017f57600080fd5b5061019a6004803603810190610195919061103c565b610776565b6040516101a79190611419565b60405180910390f35b3480156101bc57600080fd5b506101d760048036038101906101d291906110fa565b610796565b6040516101e49190611419565b60405180910390f35b3480156101f957600080fd5b50610214600480360381019061020f91906110d1565b6107c5565b60405161022494939291906113cd565b60405180910390f35b34801561023957600080fd5b50610254600480360381019061024f91906110d1565b6108ba565b005b34801561026257600080fd5b5061026b610b7a565b60405161027891906114f4565b60405180910390f35b61029b600480360381019061029691906110d1565b610b80565b005b600081815481106102ad57600080fd5b906000526020600020016000915054906101000a900473ffffffffffffffffffffffffffffffffffffffff1681565b600360003373ffffffffffffffffffffffffffffffffffffffff1673ffffffffffffffffffffffffffffffffffffffff16815260200190815260200160002060009054906101000a900460ff16610368576040517f08c379a000000000000000000000000000000000000000000000000000000000815260040161035f90611494565b60405180910390fd5b600260405180608001604052808673ffffffffffffffffffffffffffffffffffffffff16815260200185815260200184848080601f016020809104026020016040519081016040528093929190818152602001838380828437600081840152601f19601f82011690508083019250505050505050815260200160001515815250908060018154018082558091505060019003906000526020600020906004020160009091909190915060008201518160000160006101000a81548173ffffffffffffffffffffffffffffffffffffffff021916908373ffffffffffffffffffffffffffffffffffffffff16021790555060208201518160010155604082015181600201908051906020019061047e929190610f25565b5060608201518160030160006101000a81548160ff021916908315150217905550505060016002805490506104b391906115b2565b7f08324b3d745b914e3abd4ffbfead91e3b78391a98c173202129215ab933adfbe60405160405180910390a250505050565b600360003373ffffffffffffffffffffffffffffffffffffffff1673ffffffffffffffffffffffffffffffffffffffff16815260200190815260200160002060009054906101000a900460ff16610571576040517f08c379a000000000000000000000000000000000000000000000000000000000815260040161056890611494565b60405180910390fd5b8060028054905081106105b9576040517f08c379a00000000000000000000000000000000000000000000000000000000081526004016105b0906114b4565b60405180910390fd5b81600281815481106105f4577f4e487b7100000000000000000000000000000000000000000000000000000000600052603260045260246000fd5b906000526020600020906004020160030160009054906101000a900460ff1615610653576040517f08c379a000000000000000000000000000000000000000000000000000000000815260040161064a90611434565b60405180910390fd5b60016004600085815260200190815260200160002060003373ffffffffffffffffffffffffffffffffffffffff1673ffffffffffffffffffffffffffffffffffffffff16815260200190815260200160002060006101000a81548160ff02191690831515021790556106c457600080fd5b60006004600085815260200190815260200160002060003373ffffffffffffffffffffffffffffffffffffffff1673ffffffffffffffffffffffffffffffffffffffff16815260200190815260200160002060006101000a81548160ff021916908315150217905550823373ffffffffffffffffffffffffffffffffffffffff167fec9ab91322523c899ede7830ec9bfc992b5981cdcc27b91162fb23de5791117b60405160405180910390a3505050565b60036020528060005260406000206000915054906101000a900460ff1681565b60046020528160005260406000206020528060005260406000206000915091509054906101000a900460ff1681565b600281815481106107d557600080fd5b90600052602060002090600402016000915090508060000160009054906101000a900473ffffffffffffffffffffffffffffffffffffffff169080600101549080600201805461082490611661565b80601f016020809104026020016040519081016040528092919081815260200182805461085090611661565b801561089d5780601f106108725761010080835404028352916020019161089d565b820191906000526020600020905b81548152906001019060200180831161088057829003601f168201915b5050505050908060030160009054906101000a900460ff16905084565b600360003373ffffffffffffffffffffffffffffffffffffffff1673ffffffffffffffffffffffffffffffffffffffff16815260200190815260200160002060009054906101000a900460ff16610946576040517f08c379a000000000000000000000000000000000000000000000000000000000815260040161093d90611494565b60405180910390fd5b80600280549050811061098e576040517f08c379a0000000000000000000000000000000000000000000000000000000008152600401610985906114b4565b60405180910390fd5b816004600082815260200190815260200160002060003373ffffffffffffffffffffffffffffffffffffffff1673ffffffffffffffffffffffffffffffffffffffff16815260200190815260200160002060009054906101000a900460ff1615610a2d576040517f08c379a0000000000000000000000000000000000000000000000000000000008152600401610a24906114d4565b60405180910390fd5b8260028181548110610a68577f4e487b7100000000000000000000000000000000000000000000000000000000600052603260045260246000fd5b906000526020600020906004020160030160009054906101000a900460ff1615610ac7576040517f08c379a0000000000000000000000000000000000000000000000000000000008152600401610abe90611434565b60405180910390fd5b60016004600086815260200190815260200160002060003373ffffffffffffffffffffffffffffffffffffffff1673ffffffffffffffffffffffffffffffffffffffff16815260200190815260200160002060006101000a81548160ff021916908315150217905550833373ffffffffffffffffffffffffffffffffffffffff167f90ec57f18fa7b15c6b8d5e4d1deb90796c74b2ff23d4d0cecad0cb42a96b312860405160405180910390a350505050565b60015481565b806002805490508110610bc8576040517f08c379a0000000000000000000000000000000000000000000000000000000008152600401610bbf906114b4565b60405180910390fd5b8160028181548110610c03577f4e487b7100000000000000000000000000000000000000000000000000000000600052603260045260246000fd5b906000526020600020906004020160030160009054906101000a900460ff1615610c62576040517f08c379a0000000000000000000000000000000000000000000000000000000008152600401610c5990611434565b60405180910390fd5b600154610c6e84610e25565b1015610caf576040517f08c379a0000000000000000000000000000000000000000000000000000000008152600401610ca690611454565b60405180910390fd5b600060028481548110610ceb577f4e487b7100000000000000000000000000000000000000000000000000000000600052603260045260246000fd5b9060005260206000209060040201905060018160030160006101000a81548160ff02191690831515021790555060008160000160009054906101000a900473ffffffffffffffffffffffffffffffffffffffff1673ffffffffffffffffffffffffffffffffffffffff16826001015483600201604051610d6b919061139b565b60006040518083038185875af1925050503d8060008114610da8576040519150601f19603f3d011682016040523d82523d6000602084013e610dad565b606091505b5050905080610df1576040517f08c379a0000000000000000000000000000000000000000000000000000000008152600401610de890611474565b60405180910390fd5b847fddb556f1d2c1ec821e910b019d3685b229db152a0ecd517ca7e24b8bd713928960405160405180910390a25050505050565b6000805b600080549050811015610f1f57600460008481526020019081526020016000206000808381548110610e84577f4e487b7100000000000000000000000000000000000000000000000000000000600052603260045260246000fd5b9060005260206000200160009054906101000a900473ffffffffffffffffffffffffffffffffffffffff1673ffffffffffffffffffffffffffffffffffffffff1673ffffffffffffffffffffffffffffffffffffffff16815260200190815260200160002060009054906101000a900460ff1615610f0c57600182610f09919061155c565b91505b8080610f1790611693565b915050610e29565b50919050565b828054610f3190611661565b90600052602060002090601f016020900481019282610f535760008555610f9a565b82601f10610f6c57805160ff1916838001178555610f9a565b82800160010185558215610f9a579182015b82811115610f99578251825591602001919060010190610f7e565b5b509050610fa79190610fab565b5090565b5b80821115610fc4576000816000905550600101610fac565b5090565b600081359050610fd78161174b565b92915050565b60008083601f840112610fef57600080fd5b8235905067ffffffffffffffff81111561100857600080fd5b60208301915083600182028301111561102057600080fd5b9250929050565b60008135905061103681611762565b92915050565b60006020828403121561104e57600080fd5b600061105c84828501610fc8565b91505092915050565b6000806000806060858703121561107b57600080fd5b600061108987828801610fc8565b945050602061109a87828801611027565b935050604085013567ffffffffffffffff8111156110b757600080fd5b6110c387828801610fdd565b925092505092959194509250565b6000602082840312156110e357600080fd5b60006110f184828501611027565b91505092915050565b6000806040838503121561110d57600080fd5b600061111b85828601611027565b925050602061112c85828601610fc8565b9150509250929050565b61113f816115e6565b82525050565b61114e816115f8565b82525050565b600061115f82611524565b611169818561152f565b935061117981856020860161162e565b6111828161173a565b840191505092915050565b6000815461119a81611661565b6111a48186611540565b945060018216600081146111bf57600181146111d057611203565b60ff19831686528186019350611203565b6111d98561150f565b60005b838110156111fb578154818901526001820191506020810190506111dc565b838801955050505b50505092915050565b600061121960188361154b565b91507f7468697320747820616c726561647920657865637574656400000000000000006000830152602082019050919050565b600061125960148361154b565b91507f617070726f76616c73203c2072657175697265640000000000000000000000006000830152602082019050919050565b600061129960098361154b565b91507f7478206661696c696400000000000000000000000000000000000000000000006000830152602082019050919050565b60006112d960208361154b565b91507f6d73672e73656e646572206d757374206265206f776e657220616464726573736000830152602082019050919050565b600061131960118361154b565b91507f747820646f6573206e6f742065786973740000000000000000000000000000006000830152602082019050919050565b600061135960138361154b565b91507f747820616c726561647920617070726f766564000000000000000000000000006000830152602082019050919050565b61139581611624565b82525050565b60006113a7828461118d565b915081905092915050565b60006020820190506113c76000830184611136565b92915050565b60006080820190506113e26000830187611136565b6113ef602083018661138c565b81810360408301526114018185611154565b90506114106060830184611145565b95945050505050565b600060208201905061142e6000830184611145565b92915050565b6000602082019050818103600083015261144d8161120c565b9050919050565b6000602082019050818103600083015261146d8161124c565b9050919050565b6000602082019050818103600083015261148d8161128c565b9050919050565b600060208201905081810360008301526114ad816112cc565b9050919050565b600060208201905081810360008301526114cd8161130c565b9050919050565b600060208201905081810360008301526114ed8161134c565b9050919050565b6000602082019050611509600083018461138c565b92915050565b60008190508160005260206000209050919050565b600081519050919050565b600082825260208201905092915050565b600081905092915050565b600082825260208201905092915050565b600061156782611624565b915061157283611624565b9250827fffffffffffffffffffffffffffffffffffffffffffffffffffffffffffffffff038211156115a7576115a66116dc565b5b828201905092915050565b60006115bd82611624565b91506115c883611624565b9250828210156115db576115da6116dc565b5b828203905092915050565b60006115f182611604565b9050919050565b60008115159050919050565b600073ffffffffffffffffffffffffffffffffffffffff82169050919050565b6000819050919050565b60005b8381101561164c578082015181840152602081019050611631565b8381111561165b576000848401525b50505050565b6000600282049050600182168061167957607f821691505b6020821081141561168d5761168c61170b565b5b50919050565b600061169e82611624565b91507fffffffffffffffffffffffffffffffffffffffffffffffffffffffffffffffff8214156116d1576116d06116dc565b5b600182019050919050565b7f4e487b7100000000000000000000000000000000000000000000000000000000600052601160045260246000fd5b7f4e487b7100000000000000000000000000000000000000000000000000000000600052602260045260246000fd5b6000601f19601f8301169050919050565b611754816115e6565b811461175f57600080fd5b50565b61176b81611624565b811461177657600080fd5b5056fea2646970667358221220322f1acf5d1c39b169f3224ef1a9ef28a972e75daca0f41c257a553caad7da1264736f6c63430008000033",
  "immutableReferences": {},
  "source": "// SPDX-License-Identifier: MIT\npragma solidity >=0.4.22 <0.9.0;\n\n/**\n * MultiSigWallet\n */\ncontract MultiSigWallet {\n\n  // \n  struct Transaction {\n    // \n    address to;\n    // \n    uint value;\n    // \n    bytes data;\n    // \n    bool executed;\n  }\n\n  // Owner\n  address[] public owners;\n  // \n  uint public required;\n  // \n  Transaction[] public transactions;\n  \n  // ownermap\n  mapping(address => bool) public isOwner;\n  // IDonwermap\n  mapping(uint => mapping(address => bool)) public approved;\n\n  // \n  event Deposit(address indexed sender, uint amount);\n  event Submit(uint indexed txId);\n  event Approve(address indexed owner, uint indexed txId);\n  event Revoke(address indexed owner, uint indexed txId);\n  event Execute(uint indexed txId);\n\n  // owner\n  modifier onlyOwner() {\n    require(isOwner[msg.sender], \"msg.sender must be owner address\");\n    _;\n  }\n\n  // ID\n  modifier txExists(uint _txId) {\n    require(_txId < transactions.length, \"tx does not exist\");\n    _;\n  }\n\n  // \n  modifier notApproved(uint _txId) {\n    require(!approved[_txId][msg.sender], \"tx already approved\");\n    _;\n  }\n\n  // ID\n  modifier notExecuted(uint _txId) {\n    require(!transactions[_txId].executed, \"this tx already executed\");\n    _;\n  }\n\n  /**\n   * \n   * @param _owners owner\n   * @param _required \n   */\n  constructor(address[] memory _owners, uint _required) {\n    // \n    require(_owners.length > 0, \"number of owner addresses must be more than zero!!\");\n    require(_required > 0 && _required <= _owners.length, \"invalid required number of owners\");\n\n    // ownermap\n    for(uint i; i < _owners.length; i++) {\n      // owner\n      address owner = _owners[i];\n      // owner\n      require(owner != address(0), \"invalid address\");\n      // \n      require(!isOwner[owner], \"owner is not unique\");\n      // map\n      isOwner[owner] = true;\n      owners.push(owner);\n    }\n\n    // \n    required = _required;\n  }\n\n  /**\n   * \n   */\n  receive() external payable {\n    // \n    emit Deposit(msg.sender, msg.value);\n  }\n\n  /**\n   * \n   * @param _to \n   * @param _value \n   * @param _data \n   */\n  function submit(address _to, uint _value, bytes calldata _data) external onlyOwner {\n    // Transaction\n    transactions.push(Transaction({\n      to: _to,\n      value: _value,\n      data: _data,\n      executed: false\n    }));\n    // \n    emit Submit(transactions.length - 1);\n  }\n\n  /**\n   * ID\n   * @param _txId ID\n   */\n  function approve(uint _txId) \n    external\n    onlyOwner\n    txExists(_txId)\n    notApproved(_txId)\n    notExecuted(_txId)\n  {\n    // \n    approved[_txId][msg.sender] = true;\n    // \n    emit Approve(msg.sender, _txId);\n  }\n\n  /**\n   * ID\n   * @param _txId ID\n   */\n  function _getApprovalCount(uint _txId) private view returns (uint count) {\n    // \n    for(uint i; i < owners.length; i++) {\n      // count\n      if (approved[_txId][owners[i]]) {\n        count += 1;\n      }\n    }\n  }\n\n  /**\n   * \n   * @param _txId ID\n   */\n  function execute(uint _txId) payable external txExists(_txId) notExecuted(_txId) {\n    // \n    require(_getApprovalCount(_txId) >= required, \"approvals < required\");\n    // \n    Transaction storage transaction = transactions[_txId];\n    // \n    transaction.executed = true;\n    // \n    (bool success, ) = payable(transaction.to).call{value: transaction.value}(\n      transaction.data\n    );\n    // \n    require(success, \"tx failid\");\n    // \n    emit Execute(_txId);\n  }\n\n  /**\n   * \n   * @param _txId ID\n   */\n  function revoke(uint _txId) external onlyOwner txExists(_txId) notExecuted(_txId) {\n    // \n    require(approved[_txId][msg.sender] = true);\n    // \n    approved[_txId][msg.sender] = false;\n    // \n    emit Revoke(msg.sender, _txId);\n  }\n}\n",
  "sourcePath": "/Users/harukikondo/git/MultiSigWalletContract/contracts/MultiSigWallet.sol",
  "compiler": {
    "name": "solc",
    "version": "0.8.0+commit.c7dfd78e.Emscripten.clang"
  },
  "schemaVersion": "3.4.4",
  "updatedAt": "2022-07-16T10:00:53.713Z",
  "devdoc": {
    "kind": "dev",
    "methods": {
      "approve(uint256)": {
        "params": {
          "_txId": "ID"
        }
      },
      "constructor": {
        "params": {
          "_owners": "owner",
          "_required": ""
        }
      },
      "execute(uint256)": {
        "params": {
          "_txId": "ID"
        }
      },
      "revoke(uint256)": {
        "params": {
          "_txId": "ID"
        }
      },
      "submit(address,uint256,bytes)": {
        "params": {
          "_data": "",
          "_to": "",
          "_value": ""
        }
      }
    },
    "version": 1
  },
  "userdoc": {
    "kind": "user",
    "methods": {
      "approve(uint256)": {
        "notice": "ID"
      },
      "constructor": {
        "notice": ""
      },
      "execute(uint256)": {
        "notice": ""
      },
      "revoke(uint256)": {
        "notice": ""
      },
      "submit(address,uint256,bytes)": {
        "notice": ""
      }
    },
    "notice": "MultiSigWallet",
    "version": 1
  }
}