{
  "contractName": "MultiSigWallet",
  "abi": [
    {
      "inputs": [
        {
          "internalType": "string",
          "name": "_name",
          "type": "string"
        },
        {
          "internalType": "address[]",
          "name": "_owners",
          "type": "address[]"
        },
        {
          "internalType": "uint256",
          "name": "_required",
          "type": "uint256"
        }
      ],
      "stateMutability": "nonpayable",
      "type": "constructor"
    },
    {
      "anonymous": false,
      "inputs": [
        {
          "indexed": true,
          "internalType": "address",
          "name": "owner",
          "type": "address"
        },
        {
          "indexed": true,
          "internalType": "uint256",
          "name": "txId",
          "type": "uint256"
        }
      ],
      "name": "Approve",
      "type": "event"
    },
    {
      "anonymous": false,
      "inputs": [
        {
          "indexed": true,
          "internalType": "address",
          "name": "sender",
          "type": "address"
        },
        {
          "indexed": false,
          "internalType": "uint256",
          "name": "amount",
          "type": "uint256"
        }
      ],
      "name": "Deposit",
      "type": "event"
    },
    {
      "anonymous": false,
      "inputs": [
        {
          "indexed": true,
          "internalType": "uint256",
          "name": "txId",
          "type": "uint256"
        }
      ],
      "name": "Execute",
      "type": "event"
    },
    {
      "anonymous": false,
      "inputs": [
        {
          "indexed": true,
          "internalType": "address",
          "name": "owner",
          "type": "address"
        },
        {
          "indexed": true,
          "internalType": "uint256",
          "name": "txId",
          "type": "uint256"
        }
      ],
      "name": "Revoke",
      "type": "event"
    },
    {
      "anonymous": false,
      "inputs": [
        {
          "indexed": true,
          "internalType": "uint256",
          "name": "txId",
          "type": "uint256"
        }
      ],
      "name": "Submit",
      "type": "event"
    },
    {
      "inputs": [
        {
          "internalType": "uint256",
          "name": "",
          "type": "uint256"
        },
        {
          "internalType": "address",
          "name": "",
          "type": "address"
        }
      ],
      "name": "approved",
      "outputs": [
        {
          "internalType": "bool",
          "name": "",
          "type": "bool"
        }
      ],
      "stateMutability": "view",
      "type": "function"
    },
    {
      "inputs": [
        {
          "internalType": "address",
          "name": "",
          "type": "address"
        }
      ],
      "name": "isOwner",
      "outputs": [
        {
          "internalType": "bool",
          "name": "",
          "type": "bool"
        }
      ],
      "stateMutability": "view",
      "type": "function"
    },
    {
      "inputs": [
        {
          "internalType": "uint256",
          "name": "",
          "type": "uint256"
        }
      ],
      "name": "owners",
      "outputs": [
        {
          "internalType": "address",
          "name": "",
          "type": "address"
        }
      ],
      "stateMutability": "view",
      "type": "function"
    },
    {
      "inputs": [],
      "name": "required",
      "outputs": [
        {
          "internalType": "uint256",
          "name": "",
          "type": "uint256"
        }
      ],
      "stateMutability": "view",
      "type": "function"
    },
    {
      "inputs": [
        {
          "internalType": "uint256",
          "name": "",
          "type": "uint256"
        }
      ],
      "name": "transactions",
      "outputs": [
        {
          "internalType": "address",
          "name": "to",
          "type": "address"
        },
        {
          "internalType": "uint256",
          "name": "value",
          "type": "uint256"
        },
        {
          "internalType": "bytes",
          "name": "data",
          "type": "bytes"
        },
        {
          "internalType": "bool",
          "name": "executed",
          "type": "bool"
        }
      ],
      "stateMutability": "view",
      "type": "function"
    },
    {
      "inputs": [],
      "name": "walletName",
      "outputs": [
        {
          "internalType": "string",
          "name": "",
          "type": "string"
        }
      ],
      "stateMutability": "view",
      "type": "function"
    },
    {
      "stateMutability": "payable",
      "type": "receive"
    },
    {
      "inputs": [
        {
          "internalType": "address",
          "name": "_to",
          "type": "address"
        },
        {
          "internalType": "uint256",
          "name": "_value",
          "type": "uint256"
        },
        {
          "internalType": "bytes",
          "name": "_data",
          "type": "bytes"
        }
      ],
      "name": "submit",
      "outputs": [],
      "stateMutability": "nonpayable",
      "type": "function"
    },
    {
      "inputs": [
        {
          "internalType": "uint256",
          "name": "_txId",
          "type": "uint256"
        }
      ],
      "name": "approve",
      "outputs": [],
      "stateMutability": "nonpayable",
      "type": "function"
    },
    {
      "inputs": [
        {
          "internalType": "uint256",
          "name": "_txId",
          "type": "uint256"
        }
      ],
      "name": "execute",
      "outputs": [],
      "stateMutability": "payable",
      "type": "function"
    },
    {
      "inputs": [
        {
          "internalType": "uint256",
          "name": "_txId",
          "type": "uint256"
        }
      ],
      "name": "revoke",
      "outputs": [],
      "stateMutability": "nonpayable",
      "type": "function"
    }
  ],
  "bytecode": "0x60806040523480156200001157600080fd5b50604051620022c4380380620022c4833981810160405281019062000037919062000516565b60008251116200007e576040517f08c379a0000000000000000000000000000000000000000000000000000000008152600401620000759062000736565b60405180910390fd5b60008111801562000090575081518111155b620000d2576040517f08c379a0000000000000000000000000000000000000000000000000000000008152600401620000c99062000758565b60405180910390fd5b60005b8251811015620002fa5760008382815181106200011b577f4e487b7100000000000000000000000000000000000000000000000000000000600052603260045260246000fd5b60200260200101519050600073ffffffffffffffffffffffffffffffffffffffff168173ffffffffffffffffffffffffffffffffffffffff16141562000198576040517f08c379a00000000000000000000000000000000000000000000000000000000081526004016200018f9062000714565b60405180910390fd5b600460008273ffffffffffffffffffffffffffffffffffffffff1673ffffffffffffffffffffffffffffffffffffffff16815260200190815260200160002060009054906101000a900460ff161562000228576040517f08c379a00000000000000000000000000000000000000000000000000000000081526004016200021f90620006f2565b60405180910390fd5b6001600460008373ffffffffffffffffffffffffffffffffffffffff1673ffffffffffffffffffffffffffffffffffffffff16815260200190815260200160002060006101000a81548160ff0219169083151502179055506001819080600181540180825580915050600190039060005260206000200160009091909190916101000a81548173ffffffffffffffffffffffffffffffffffffffff021916908373ffffffffffffffffffffffffffffffffffffffff160217905550508080620002f190620008cb565b915050620000d5565b5082600090805190602001906200031392919062000324565b5080600281905550505050620009da565b828054620003329062000895565b90600052602060002090601f016020900481019282620003565760008555620003a2565b82601f106200037157805160ff1916838001178555620003a2565b82800160010185558215620003a2579182015b82811115620003a157825182559160200191906001019062000384565b5b509050620003b19190620003b5565b5090565b5b80821115620003d0576000816000905550600101620003b6565b5090565b6000620003eb620003e584620007ae565b6200077a565b905080838252602082019050828560208602820111156200040b57600080fd5b60005b858110156200043f57816200042488826200048e565b8452602084019350602083019250506001810190506200040e565b5050509392505050565b6000620004606200045a84620007dd565b6200077a565b9050828152602081018484840111156200047957600080fd5b620004868482856200085f565b509392505050565b6000815190506200049f81620009a6565b92915050565b600082601f830112620004b757600080fd5b8151620004c9848260208601620003d4565b91505092915050565b600082601f830112620004e457600080fd5b8151620004f684826020860162000449565b91505092915050565b6000815190506200051081620009c0565b92915050565b6000806000606084860312156200052c57600080fd5b600084015167ffffffffffffffff8111156200054757600080fd5b6200055586828701620004d2565b935050602084015167ffffffffffffffff8111156200057357600080fd5b6200058186828701620004a5565b92505060406200059486828701620004ff565b9150509250925092565b6000620005ad60138362000810565b91507f6f776e6572206973206e6f7420756e69717565000000000000000000000000006000830152602082019050919050565b6000620005ef600f8362000810565b91507f696e76616c6964206164647265737300000000000000000000000000000000006000830152602082019050919050565b60006200063160328362000810565b91507f6e756d626572206f66206f776e657220616464726573736573206d757374206260008301527f65206d6f7265207468616e207a65726f212100000000000000000000000000006020830152604082019050919050565b60006200069960218362000810565b91507f696e76616c6964207265717569726564206e756d626572206f66206f776e657260008301527f73000000000000000000000000000000000000000000000000000000000000006020830152604082019050919050565b600060208201905081810360008301526200070d816200059e565b9050919050565b600060208201905081810360008301526200072f81620005e0565b9050919050565b60006020820190508181036000830152620007518162000622565b9050919050565b6000602082019050818103600083015262000773816200068a565b9050919050565b6000604051905081810181811067ffffffffffffffff82111715620007a457620007a362000977565b5b8060405250919050565b600067ffffffffffffffff821115620007cc57620007cb62000977565b5b602082029050602081019050919050565b600067ffffffffffffffff821115620007fb57620007fa62000977565b5b601f19601f8301169050602081019050919050565b600082825260208201905092915050565b60006200082e8262000835565b9050919050565b600073ffffffffffffffffffffffffffffffffffffffff82169050919050565b6000819050919050565b60005b838110156200087f57808201518184015260208101905062000862565b838111156200088f576000848401525b50505050565b60006002820490506001821680620008ae57607f821691505b60208210811415620008c557620008c462000948565b5b50919050565b6000620008d88262000855565b91507fffffffffffffffffffffffffffffffffffffffffffffffffffffffffffffffff8214156200090e576200090d62000919565b5b600182019050919050565b7f4e487b7100000000000000000000000000000000000000000000000000000000600052601160045260246000fd5b7f4e487b7100000000000000000000000000000000000000000000000000000000600052602260045260246000fd5b7f4e487b7100000000000000000000000000000000000000000000000000000000600052604160045260246000fd5b620009b18162000821565b8114620009bd57600080fd5b50565b620009cb8162000855565b8114620009d757600080fd5b50565b6118da80620009ea6000396000f3fe6080604052600436106100955760003560e01c80639ace38c2116100595780639ace38c2146101f8578063b759f95414610238578063cf8d8ca014610261578063dc8452cd1461028c578063fe0d94c1146102b7576100ea565b8063025e7c27146100ef57806314de327f1461012c57806320c5429b146101555780632f54bf6e1461017e5780638253951a146101bb576100ea565b366100ea573373ffffffffffffffffffffffffffffffffffffffff167fe1fffcc4923d04b559f4d29a8bfc6cda04eb5b0d3c460751c2402c5c5cc9109c346040516100e09190611614565b60405180910390a2005b600080fd5b3480156100fb57600080fd5b5061011660048036038101906101119190611196565b6102d3565b60405161012391906114b0565b60405180910390f35b34801561013857600080fd5b50610153600480360381019061014e919061112a565b610312565b005b34801561016157600080fd5b5061017c60048036038101906101779190611196565b61051b565b005b34801561018a57600080fd5b506101a560048036038101906101a09190611101565b6107ac565b6040516101b29190611517565b60405180910390f35b3480156101c757600080fd5b506101e260048036038101906101dd91906111bf565b6107cc565b6040516101ef9190611517565b60405180910390f35b34801561020457600080fd5b5061021f600480360381019061021a9190611196565b6107fb565b60405161022f94939291906114cb565b60405180910390f35b34801561024457600080fd5b5061025f600480360381019061025a9190611196565b6108f0565b005b34801561026d57600080fd5b50610276610bb0565b6040516102839190611532565b60405180910390f35b34801561029857600080fd5b506102a1610c3e565b6040516102ae9190611614565b60405180910390f35b6102d160048036038101906102cc9190611196565b610c44565b005b600181815481106102e357600080fd5b906000526020600020016000915054906101000a900473ffffffffffffffffffffffffffffffffffffffff1681565b600460003373ffffffffffffffffffffffffffffffffffffffff1673ffffffffffffffffffffffffffffffffffffffff16815260200190815260200160002060009054906101000a900460ff1661039e576040517f08c379a0000000000000000000000000000000000000000000000000000000008152600401610395906115b4565b60405180910390fd5b600360405180608001604052808673ffffffffffffffffffffffffffffffffffffffff16815260200185815260200184848080601f016020809104026020016040519081016040528093929190818152602001838380828437600081840152601f19601f82011690508083019250505050505050815260200160001515815250908060018154018082558091505060019003906000526020600020906004020160009091909190915060008201518160000160006101000a81548173ffffffffffffffffffffffffffffffffffffffff021916908373ffffffffffffffffffffffffffffffffffffffff1602179055506020820151816001015560408201518160020190805190602001906104b4929190610fea565b5060608201518160030160006101000a81548160ff021916908315150217905550505060016003805490506104e991906116dd565b7f08324b3d745b914e3abd4ffbfead91e3b78391a98c173202129215ab933adfbe60405160405180910390a250505050565b600460003373ffffffffffffffffffffffffffffffffffffffff1673ffffffffffffffffffffffffffffffffffffffff16815260200190815260200160002060009054906101000a900460ff166105a7576040517f08c379a000000000000000000000000000000000000000000000000000000000815260040161059e906115b4565b60405180910390fd5b8060038054905081106105ef576040517f08c379a00000000000000000000000000000000000000000000000000000000081526004016105e6906115d4565b60405180910390fd5b816003818154811061062a577f4e487b7100000000000000000000000000000000000000000000000000000000600052603260045260246000fd5b906000526020600020906004020160030160009054906101000a900460ff1615610689576040517f08c379a000000000000000000000000000000000000000000000000000000000815260040161068090611554565b60405180910390fd5b60016005600085815260200190815260200160002060003373ffffffffffffffffffffffffffffffffffffffff1673ffffffffffffffffffffffffffffffffffffffff16815260200190815260200160002060006101000a81548160ff02191690831515021790556106fa57600080fd5b60006005600085815260200190815260200160002060003373ffffffffffffffffffffffffffffffffffffffff1673ffffffffffffffffffffffffffffffffffffffff16815260200190815260200160002060006101000a81548160ff021916908315150217905550823373ffffffffffffffffffffffffffffffffffffffff167fec9ab91322523c899ede7830ec9bfc992b5981cdcc27b91162fb23de5791117b60405160405180910390a3505050565b60046020528060005260406000206000915054906101000a900460ff1681565b60056020528160005260406000206020528060005260406000206000915091509054906101000a900460ff1681565b6003818154811061080b57600080fd5b90600052602060002090600402016000915090508060000160009054906101000a900473ffffffffffffffffffffffffffffffffffffffff169080600101549080600201805461085a9061178c565b80601f01602080910402602001604051908101604052809291908181526020018280546108869061178c565b80156108d35780601f106108a8576101008083540402835291602001916108d3565b820191906000526020600020905b8154815290600101906020018083116108b657829003601f168201915b5050505050908060030160009054906101000a900460ff16905084565b600460003373ffffffffffffffffffffffffffffffffffffffff1673ffffffffffffffffffffffffffffffffffffffff16815260200190815260200160002060009054906101000a900460ff1661097c576040517f08c379a0000000000000000000000000000000000000000000000000000000008152600401610973906115b4565b60405180910390fd5b8060038054905081106109c4576040517f08c379a00000000000000000000000000000000000000000000000000000000081526004016109bb906115d4565b60405180910390fd5b816005600082815260200190815260200160002060003373ffffffffffffffffffffffffffffffffffffffff1673ffffffffffffffffffffffffffffffffffffffff16815260200190815260200160002060009054906101000a900460ff1615610a63576040517f08c379a0000000000000000000000000000000000000000000000000000000008152600401610a5a906115f4565b60405180910390fd5b8260038181548110610a9e577f4e487b7100000000000000000000000000000000000000000000000000000000600052603260045260246000fd5b906000526020600020906004020160030160009054906101000a900460ff1615610afd576040517f08c379a0000000000000000000000000000000000000000000000000000000008152600401610af490611554565b60405180910390fd5b60016005600086815260200190815260200160002060003373ffffffffffffffffffffffffffffffffffffffff1673ffffffffffffffffffffffffffffffffffffffff16815260200190815260200160002060006101000a81548160ff021916908315150217905550833373ffffffffffffffffffffffffffffffffffffffff167f90ec57f18fa7b15c6b8d5e4d1deb90796c74b2ff23d4d0cecad0cb42a96b312860405160405180910390a350505050565b60008054610bbd9061178c565b80601f0160208091040260200160405190810160405280929190818152602001828054610be99061178c565b8015610c365780601f10610c0b57610100808354040283529160200191610c36565b820191906000526020600020905b815481529060010190602001808311610c1957829003601f168201915b505050505081565b60025481565b806003805490508110610c8c576040517f08c379a0000000000000000000000000000000000000000000000000000000008152600401610c83906115d4565b60405180910390fd5b8160038181548110610cc7577f4e487b7100000000000000000000000000000000000000000000000000000000600052603260045260246000fd5b906000526020600020906004020160030160009054906101000a900460ff1615610d26576040517f08c379a0000000000000000000000000000000000000000000000000000000008152600401610d1d90611554565b60405180910390fd5b600254610d3284610ee9565b1015610d73576040517f08c379a0000000000000000000000000000000000000000000000000000000008152600401610d6a90611574565b60405180910390fd5b600060038481548110610daf577f4e487b7100000000000000000000000000000000000000000000000000000000600052603260045260246000fd5b9060005260206000209060040201905060018160030160006101000a81548160ff02191690831515021790555060008160000160009054906101000a900473ffffffffffffffffffffffffffffffffffffffff1673ffffffffffffffffffffffffffffffffffffffff16826001015483600201604051610e2f9190611499565b60006040518083038185875af1925050503d8060008114610e6c576040519150601f19603f3d011682016040523d82523d6000602084013e610e71565b606091505b5050905080610eb5576040517f08c379a0000000000000000000000000000000000000000000000000000000008152600401610eac90611594565b60405180910390fd5b847fddb556f1d2c1ec821e910b019d3685b229db152a0ecd517ca7e24b8bd713928960405160405180910390a25050505050565b6000805b600180549050811015610fe45760056000848152602001908152602001600020600060018381548110610f49577f4e487b7100000000000000000000000000000000000000000000000000000000600052603260045260246000fd5b9060005260206000200160009054906101000a900473ffffffffffffffffffffffffffffffffffffffff1673ffffffffffffffffffffffffffffffffffffffff1673ffffffffffffffffffffffffffffffffffffffff16815260200190815260200160002060009054906101000a900460ff1615610fd157600182610fce9190611687565b91505b8080610fdc906117be565b915050610eed565b50919050565b828054610ff69061178c565b90600052602060002090601f016020900481019282611018576000855561105f565b82601f1061103157805160ff191683800117855561105f565b8280016001018555821561105f579182015b8281111561105e578251825591602001919060010190611043565b5b50905061106c9190611070565b5090565b5b80821115611089576000816000905550600101611071565b5090565b60008135905061109c81611876565b92915050565b60008083601f8401126110b457600080fd5b8235905067ffffffffffffffff8111156110cd57600080fd5b6020830191508360018202830111156110e557600080fd5b9250929050565b6000813590506110fb8161188d565b92915050565b60006020828403121561111357600080fd5b60006111218482850161108d565b91505092915050565b6000806000806060858703121561114057600080fd5b600061114e8782880161108d565b945050602061115f878288016110ec565b935050604085013567ffffffffffffffff81111561117c57600080fd5b611188878288016110a2565b925092505092959194509250565b6000602082840312156111a857600080fd5b60006111b6848285016110ec565b91505092915050565b600080604083850312156111d257600080fd5b60006111e0858286016110ec565b92505060206111f18582860161108d565b9150509250929050565b61120481611711565b82525050565b61121381611723565b82525050565b600061122482611644565b61122e818561165a565b935061123e818560208601611759565b61124781611865565b840191505092915050565b6000815461125f8161178c565b611269818661166b565b945060018216600081146112845760018114611295576112c8565b60ff198316865281860193506112c8565b61129e8561162f565b60005b838110156112c0578154818901526001820191506020810190506112a1565b838801955050505b50505092915050565b60006112dc8261164f565b6112e68185611676565b93506112f6818560208601611759565b6112ff81611865565b840191505092915050565b6000611317601883611676565b91507f7468697320747820616c726561647920657865637574656400000000000000006000830152602082019050919050565b6000611357601483611676565b91507f617070726f76616c73203c2072657175697265640000000000000000000000006000830152602082019050919050565b6000611397600983611676565b91507f7478206661696c696400000000000000000000000000000000000000000000006000830152602082019050919050565b60006113d7602083611676565b91507f6d73672e73656e646572206d757374206265206f776e657220616464726573736000830152602082019050919050565b6000611417601183611676565b91507f747820646f6573206e6f742065786973740000000000000000000000000000006000830152602082019050919050565b6000611457601383611676565b91507f747820616c726561647920617070726f766564000000000000000000000000006000830152602082019050919050565b6114938161174f565b82525050565b60006114a58284611252565b915081905092915050565b60006020820190506114c560008301846111fb565b92915050565b60006080820190506114e060008301876111fb565b6114ed602083018661148a565b81810360408301526114ff8185611219565b905061150e606083018461120a565b95945050505050565b600060208201905061152c600083018461120a565b92915050565b6000602082019050818103600083015261154c81846112d1565b905092915050565b6000602082019050818103600083015261156d8161130a565b9050919050565b6000602082019050818103600083015261158d8161134a565b9050919050565b600060208201905081810360008301526115ad8161138a565b9050919050565b600060208201905081810360008301526115cd816113ca565b9050919050565b600060208201905081810360008301526115ed8161140a565b9050919050565b6000602082019050818103600083015261160d8161144a565b9050919050565b6000602082019050611629600083018461148a565b92915050565b60008190508160005260206000209050919050565b600081519050919050565b600081519050919050565b600082825260208201905092915050565b600081905092915050565b600082825260208201905092915050565b60006116928261174f565b915061169d8361174f565b9250827fffffffffffffffffffffffffffffffffffffffffffffffffffffffffffffffff038211156116d2576116d1611807565b5b828201905092915050565b60006116e88261174f565b91506116f38361174f565b92508282101561170657611705611807565b5b828203905092915050565b600061171c8261172f565b9050919050565b60008115159050919050565b600073ffffffffffffffffffffffffffffffffffffffff82169050919050565b6000819050919050565b60005b8381101561177757808201518184015260208101905061175c565b83811115611786576000848401525b50505050565b600060028204905060018216806117a457607f821691505b602082108114156117b8576117b7611836565b5b50919050565b60006117c98261174f565b91507fffffffffffffffffffffffffffffffffffffffffffffffffffffffffffffffff8214156117fc576117fb611807565b5b600182019050919050565b7f4e487b7100000000000000000000000000000000000000000000000000000000600052601160045260246000fd5b7f4e487b7100000000000000000000000000000000000000000000000000000000600052602260045260246000fd5b6000601f19601f8301169050919050565b61187f81611711565b811461188a57600080fd5b50565b6118968161174f565b81146118a157600080fd5b5056fea2646970667358221220c5fe0cfeea38ac3e66ffc283f25fdc5b919c862502b31ce77893a6e90ab8f10364736f6c63430008000033",
  "immutableReferences": {},
  "source": "// SPDX-License-Identifier: MIT\npragma solidity >=0.4.22 <0.9.0;\n\n/**\n * MultiSigWallet\n */\ncontract MultiSigWallet {\n\n  // \n  struct Transaction {\n    // \n    address to;\n    // \n    uint value;\n    // \n    bytes data;\n    // \n    bool executed;\n  }\n\n  // \n  string public walletName;\n  // Owner\n  address[] public owners;\n  // \n  uint public required;\n  // \n  Transaction[] public transactions;\n  \n  // ownermap\n  mapping(address => bool) public isOwner;\n  // IDonwermap\n  mapping(uint => mapping(address => bool)) public approved;\n\n  // \n  event Deposit(address indexed sender, uint amount);\n  event Submit(uint indexed txId);\n  event Approve(address indexed owner, uint indexed txId);\n  event Revoke(address indexed owner, uint indexed txId);\n  event Execute(uint indexed txId);\n\n  // owner\n  modifier onlyOwner() {\n    require(isOwner[msg.sender], \"msg.sender must be owner address\");\n    _;\n  }\n\n  // ID\n  modifier txExists(uint _txId) {\n    require(_txId < transactions.length, \"tx does not exist\");\n    _;\n  }\n\n  // \n  modifier notApproved(uint _txId) {\n    require(!approved[_txId][msg.sender], \"tx already approved\");\n    _;\n  }\n\n  // ID\n  modifier notExecuted(uint _txId) {\n    require(!transactions[_txId].executed, \"this tx already executed\");\n    _;\n  }\n\n  /**\n   * \n   * @param _name \n   * @param _owners owner\n   * @param _required \n   */\n  constructor(string memory _name, address[] memory _owners, uint _required) {\n    // \n    require(_owners.length > 0, \"number of owner addresses must be more than zero!!\");\n    require(_required > 0 && _required <= _owners.length, \"invalid required number of owners\");\n\n    // ownermap\n    for(uint i; i < _owners.length; i++) {\n      // owner\n      address owner = _owners[i];\n      // owner\n      require(owner != address(0), \"invalid address\");\n      // \n      require(!isOwner[owner], \"owner is not unique\");\n      // map\n      isOwner[owner] = true;\n      owners.push(owner);\n    }\n\n    // \n    walletName = _name;\n    // \n    required = _required;\n  }\n\n  /**\n   * \n   */\n  receive() external payable {\n    // \n    emit Deposit(msg.sender, msg.value);\n  }\n\n  /**\n   * \n   * @param _to \n   * @param _value \n   * @param _data \n   */\n  function submit(address _to, uint _value, bytes calldata _data) external onlyOwner {\n    // Transaction\n    transactions.push(Transaction({\n      to: _to,\n      value: _value,\n      data: _data,\n      executed: false\n    }));\n    // \n    emit Submit(transactions.length - 1);\n  }\n\n  /**\n   * ID\n   * @param _txId ID\n   */\n  function approve(uint _txId) \n    external\n    onlyOwner\n    txExists(_txId)\n    notApproved(_txId)\n    notExecuted(_txId)\n  {\n    // \n    approved[_txId][msg.sender] = true;\n    // \n    emit Approve(msg.sender, _txId);\n  }\n\n  /**\n   * ID\n   * @param _txId ID\n   */\n  function _getApprovalCount(uint _txId) private view returns (uint count) {\n    // \n    for(uint i; i < owners.length; i++) {\n      // count\n      if (approved[_txId][owners[i]]) {\n        count += 1;\n      }\n    }\n  }\n\n  /**\n   * \n   * @param _txId ID\n   */\n  function execute(uint _txId) payable external txExists(_txId) notExecuted(_txId) {\n    // \n    require(_getApprovalCount(_txId) >= required, \"approvals < required\");\n    // \n    Transaction storage transaction = transactions[_txId];\n    // \n    transaction.executed = true;\n    // \n    (bool success, ) = payable(transaction.to).call{value: transaction.value}(\n      transaction.data\n    );\n    // \n    require(success, \"tx failid\");\n    // \n    emit Execute(_txId);\n  }\n\n  /**\n   * \n   * @param _txId ID\n   */\n  function revoke(uint _txId) external onlyOwner txExists(_txId) notExecuted(_txId) {\n    // \n    require(approved[_txId][msg.sender] = true);\n    // \n    approved[_txId][msg.sender] = false;\n    // \n    emit Revoke(msg.sender, _txId);\n  }\n}\n",
  "sourcePath": "/Users/harukikondo/git/MultiSigWalletContract/backend/contracts/MultiSigWallet.sol",
  "compiler": {
    "name": "solc",
    "version": "0.8.0+commit.c7dfd78e.Emscripten.clang"
  },
  "schemaVersion": "3.4.4",
  "updatedAt": "2022-07-16T12:32:29.074Z",
  "devdoc": {
    "kind": "dev",
    "methods": {
      "approve(uint256)": {
        "params": {
          "_txId": "ID"
        }
      },
      "constructor": {
        "params": {
          "_name": "",
          "_owners": "owner",
          "_required": ""
        }
      },
      "execute(uint256)": {
        "params": {
          "_txId": "ID"
        }
      },
      "revoke(uint256)": {
        "params": {
          "_txId": "ID"
        }
      },
      "submit(address,uint256,bytes)": {
        "params": {
          "_data": "",
          "_to": "",
          "_value": ""
        }
      }
    },
    "version": 1
  },
  "userdoc": {
    "kind": "user",
    "methods": {
      "approve(uint256)": {
        "notice": "ID"
      },
      "constructor": {
        "notice": ""
      },
      "execute(uint256)": {
        "notice": ""
      },
      "revoke(uint256)": {
        "notice": ""
      },
      "submit(address,uint256,bytes)": {
        "notice": ""
      }
    },
    "notice": "MultiSigWallet",
    "version": 1
  }
}