{
  "contractName": "MultiSigWallet",
  "abi": [
    {
      "inputs": [
        {
          "internalType": "string",
          "name": "_name",
          "type": "string"
        },
        {
          "internalType": "address[]",
          "name": "_owners",
          "type": "address[]"
        },
        {
          "internalType": "uint256",
          "name": "_required",
          "type": "uint256"
        },
        {
          "internalType": "address",
          "name": "_WDTAddr",
          "type": "address"
        }
      ],
      "stateMutability": "nonpayable",
      "type": "constructor"
    },
    {
      "anonymous": false,
      "inputs": [
        {
          "indexed": true,
          "internalType": "address",
          "name": "owner",
          "type": "address"
        },
        {
          "indexed": true,
          "internalType": "uint256",
          "name": "txId",
          "type": "uint256"
        }
      ],
      "name": "Approve",
      "type": "event"
    },
    {
      "anonymous": false,
      "inputs": [
        {
          "indexed": true,
          "internalType": "address",
          "name": "sender",
          "type": "address"
        },
        {
          "indexed": false,
          "internalType": "uint256",
          "name": "amount",
          "type": "uint256"
        }
      ],
      "name": "Deposit",
      "type": "event"
    },
    {
      "anonymous": false,
      "inputs": [
        {
          "indexed": true,
          "internalType": "uint256",
          "name": "txId",
          "type": "uint256"
        }
      ],
      "name": "Execute",
      "type": "event"
    },
    {
      "anonymous": false,
      "inputs": [
        {
          "indexed": true,
          "internalType": "address",
          "name": "owner",
          "type": "address"
        },
        {
          "indexed": true,
          "internalType": "uint256",
          "name": "txId",
          "type": "uint256"
        }
      ],
      "name": "Revoke",
      "type": "event"
    },
    {
      "anonymous": false,
      "inputs": [
        {
          "indexed": true,
          "internalType": "uint256",
          "name": "txId",
          "type": "uint256"
        }
      ],
      "name": "Submit",
      "type": "event"
    },
    {
      "inputs": [],
      "name": "WDTAddr",
      "outputs": [
        {
          "internalType": "address",
          "name": "",
          "type": "address"
        }
      ],
      "stateMutability": "view",
      "type": "function"
    },
    {
      "inputs": [
        {
          "internalType": "uint256",
          "name": "",
          "type": "uint256"
        },
        {
          "internalType": "address",
          "name": "",
          "type": "address"
        }
      ],
      "name": "approved",
      "outputs": [
        {
          "internalType": "bool",
          "name": "",
          "type": "bool"
        }
      ],
      "stateMutability": "view",
      "type": "function"
    },
    {
      "inputs": [
        {
          "internalType": "address",
          "name": "",
          "type": "address"
        }
      ],
      "name": "isOwner",
      "outputs": [
        {
          "internalType": "bool",
          "name": "",
          "type": "bool"
        }
      ],
      "stateMutability": "view",
      "type": "function"
    },
    {
      "inputs": [
        {
          "internalType": "uint256",
          "name": "",
          "type": "uint256"
        }
      ],
      "name": "owners",
      "outputs": [
        {
          "internalType": "address",
          "name": "",
          "type": "address"
        }
      ],
      "stateMutability": "view",
      "type": "function"
    },
    {
      "inputs": [],
      "name": "required",
      "outputs": [
        {
          "internalType": "uint256",
          "name": "",
          "type": "uint256"
        }
      ],
      "stateMutability": "view",
      "type": "function"
    },
    {
      "inputs": [
        {
          "internalType": "uint256",
          "name": "",
          "type": "uint256"
        }
      ],
      "name": "transactions",
      "outputs": [
        {
          "internalType": "address",
          "name": "to",
          "type": "address"
        },
        {
          "internalType": "uint256",
          "name": "value",
          "type": "uint256"
        },
        {
          "internalType": "bytes",
          "name": "data",
          "type": "bytes"
        },
        {
          "internalType": "bool",
          "name": "executed",
          "type": "bool"
        }
      ],
      "stateMutability": "view",
      "type": "function"
    },
    {
      "inputs": [],
      "name": "walletName",
      "outputs": [
        {
          "internalType": "string",
          "name": "",
          "type": "string"
        }
      ],
      "stateMutability": "view",
      "type": "function"
    },
    {
      "stateMutability": "payable",
      "type": "receive"
    },
    {
      "inputs": [
        {
          "internalType": "address",
          "name": "_to",
          "type": "address"
        },
        {
          "internalType": "uint256",
          "name": "_value",
          "type": "uint256"
        },
        {
          "internalType": "bytes",
          "name": "_data",
          "type": "bytes"
        }
      ],
      "name": "submit",
      "outputs": [],
      "stateMutability": "nonpayable",
      "type": "function"
    },
    {
      "inputs": [
        {
          "internalType": "uint256",
          "name": "_txId",
          "type": "uint256"
        }
      ],
      "name": "approve",
      "outputs": [],
      "stateMutability": "nonpayable",
      "type": "function"
    },
    {
      "inputs": [
        {
          "internalType": "uint256",
          "name": "_txId",
          "type": "uint256"
        }
      ],
      "name": "_getApprovalCount",
      "outputs": [
        {
          "internalType": "uint256",
          "name": "count",
          "type": "uint256"
        }
      ],
      "stateMutability": "view",
      "type": "function"
    },
    {
      "inputs": [
        {
          "internalType": "uint256",
          "name": "_txId",
          "type": "uint256"
        }
      ],
      "name": "execute",
      "outputs": [],
      "stateMutability": "payable",
      "type": "function"
    },
    {
      "inputs": [
        {
          "internalType": "uint256",
          "name": "_txId",
          "type": "uint256"
        }
      ],
      "name": "revoke",
      "outputs": [],
      "stateMutability": "nonpayable",
      "type": "function"
    },
    {
      "inputs": [],
      "name": "getName",
      "outputs": [
        {
          "internalType": "string",
          "name": "",
          "type": "string"
        }
      ],
      "stateMutability": "view",
      "type": "function"
    },
    {
      "inputs": [],
      "name": "getRequired",
      "outputs": [
        {
          "internalType": "uint256",
          "name": "",
          "type": "uint256"
        }
      ],
      "stateMutability": "view",
      "type": "function"
    },
    {
      "inputs": [],
      "name": "getOwnersCount",
      "outputs": [
        {
          "internalType": "uint256",
          "name": "",
          "type": "uint256"
        }
      ],
      "stateMutability": "view",
      "type": "function"
    },
    {
      "inputs": [],
      "name": "getTxs",
      "outputs": [
        {
          "components": [
            {
              "internalType": "address",
              "name": "to",
              "type": "address"
            },
            {
              "internalType": "uint256",
              "name": "value",
              "type": "uint256"
            },
            {
              "internalType": "bytes",
              "name": "data",
              "type": "bytes"
            },
            {
              "internalType": "bool",
              "name": "executed",
              "type": "bool"
            }
          ],
          "internalType": "struct MultiSigWallet.Transaction[]",
          "name": "",
          "type": "tuple[]"
        }
      ],
      "stateMutability": "view",
      "type": "function"
    }
  ],
  "bytecode": "0x60806040523480156200001157600080fd5b50604051620029b5380380620029b5833981810160405281019062000037919062000558565b60008351116200007e576040517f08c379a000000000000000000000000000000000000000000000000000000000815260040162000075906200078e565b60405180910390fd5b60008211801562000090575082518211155b620000d2576040517f08c379a0000000000000000000000000000000000000000000000000000000008152600401620000c990620007b0565b60405180910390fd5b60005b8351811015620002fa5760008482815181106200011b577f4e487b7100000000000000000000000000000000000000000000000000000000600052603260045260246000fd5b60200260200101519050600073ffffffffffffffffffffffffffffffffffffffff168173ffffffffffffffffffffffffffffffffffffffff16141562000198576040517f08c379a00000000000000000000000000000000000000000000000000000000081526004016200018f906200076c565b60405180910390fd5b600560008273ffffffffffffffffffffffffffffffffffffffff1673ffffffffffffffffffffffffffffffffffffffff16815260200190815260200160002060009054906101000a900460ff161562000228576040517f08c379a00000000000000000000000000000000000000000000000000000000081526004016200021f906200074a565b60405180910390fd5b6001600560008373ffffffffffffffffffffffffffffffffffffffff1673ffffffffffffffffffffffffffffffffffffffff16815260200190815260200160002060006101000a81548160ff0219169083151502179055506001819080600181540180825580915050600190039060005260206000200160009091909190916101000a81548173ffffffffffffffffffffffffffffffffffffffff021916908373ffffffffffffffffffffffffffffffffffffffff160217905550508080620002f19062000923565b915050620000d5565b5083600090805190602001906200031392919062000366565b508160028190555080600360006101000a81548173ffffffffffffffffffffffffffffffffffffffff021916908373ffffffffffffffffffffffffffffffffffffffff1602179055505050505062000a32565b8280546200037490620008ed565b90600052602060002090601f016020900481019282620003985760008555620003e4565b82601f10620003b357805160ff1916838001178555620003e4565b82800160010185558215620003e4579182015b82811115620003e3578251825591602001919060010190620003c6565b5b509050620003f39190620003f7565b5090565b5b8082111562000412576000816000905550600101620003f8565b5090565b60006200042d620004278462000806565b620007d2565b905080838252602082019050828560208602820111156200044d57600080fd5b60005b85811015620004815781620004668882620004d0565b84526020840193506020830192505060018101905062000450565b5050509392505050565b6000620004a26200049c8462000835565b620007d2565b905082815260208101848484011115620004bb57600080fd5b620004c8848285620008b7565b509392505050565b600081519050620004e181620009fe565b92915050565b600082601f830112620004f957600080fd5b81516200050b84826020860162000416565b91505092915050565b600082601f8301126200052657600080fd5b8151620005388482602086016200048b565b91505092915050565b600081519050620005528162000a18565b92915050565b600080600080608085870312156200056f57600080fd5b600085015167ffffffffffffffff8111156200058a57600080fd5b620005988782880162000514565b945050602085015167ffffffffffffffff811115620005b657600080fd5b620005c487828801620004e7565b9350506040620005d78782880162000541565b9250506060620005ea87828801620004d0565b91505092959194509250565b60006200060560138362000868565b91507f6f776e6572206973206e6f7420756e69717565000000000000000000000000006000830152602082019050919050565b600062000647600f8362000868565b91507f696e76616c6964206164647265737300000000000000000000000000000000006000830152602082019050919050565b60006200068960328362000868565b91507f6e756d626572206f66206f776e657220616464726573736573206d757374206260008301527f65206d6f7265207468616e207a65726f212100000000000000000000000000006020830152604082019050919050565b6000620006f160218362000868565b91507f696e76616c6964207265717569726564206e756d626572206f66206f776e657260008301527f73000000000000000000000000000000000000000000000000000000000000006020830152604082019050919050565b600060208201905081810360008301526200076581620005f6565b9050919050565b60006020820190508181036000830152620007878162000638565b9050919050565b60006020820190508181036000830152620007a9816200067a565b9050919050565b60006020820190508181036000830152620007cb81620006e2565b9050919050565b6000604051905081810181811067ffffffffffffffff82111715620007fc57620007fb620009cf565b5b8060405250919050565b600067ffffffffffffffff821115620008245762000823620009cf565b5b602082029050602081019050919050565b600067ffffffffffffffff821115620008535762000852620009cf565b5b601f19601f8301169050602081019050919050565b600082825260208201905092915050565b600062000886826200088d565b9050919050565b600073ffffffffffffffffffffffffffffffffffffffff82169050919050565b6000819050919050565b60005b83811015620008d7578082015181840152602081019050620008ba565b83811115620008e7576000848401525b50505050565b600060028204905060018216806200090657607f821691505b602082108114156200091d576200091c620009a0565b5b50919050565b60006200093082620008ad565b91507fffffffffffffffffffffffffffffffffffffffffffffffffffffffffffffffff82141562000966576200096562000971565b5b600182019050919050565b7f4e487b7100000000000000000000000000000000000000000000000000000000600052601160045260246000fd5b7f4e487b7100000000000000000000000000000000000000000000000000000000600052602260045260246000fd5b7f4e487b7100000000000000000000000000000000000000000000000000000000600052604160045260246000fd5b62000a098162000879565b811462000a1557600080fd5b50565b62000a2381620008ad565b811462000a2f57600080fd5b50565b611f738062000a426000396000f3fe6080604052600436106100f75760003560e01c806384a5f32a1161008a578063dc8452cd11610059578063dc8452cd14610441578063e0cedd9c1461046c578063eda8b7cd14610497578063fe0d94c1146104d4576101f3565b806384a5f32a146103825780639ace38c2146103ad578063b759f954146103ed578063cf8d8ca014610416576101f3565b806320c5429b116100c657806320c5429b146102b45780632f54bf6e146102dd57806373ff81cc1461031a5780638253951a14610345576101f3565b8063025e7c27146101f85780631398a5f61461023557806314de327f1461026057806317d7de7c14610289576101f3565b366101f3576000600360009054906101000a900473ffffffffffffffffffffffffffffffffffffffff16905060006064346101329190611d1c565b90508173ffffffffffffffffffffffffffffffffffffffff166340c10f1933836040518363ffffffff1660e01b815260040161016f929190611a75565b600060405180830381600087803b15801561018957600080fd5b505af115801561019d573d6000803e3d6000fd5b505050503373ffffffffffffffffffffffffffffffffffffffff167fe1fffcc4923d04b559f4d29a8bfc6cda04eb5b0d3c460751c2402c5c5cc9109c346040516101e79190611c09565b60405180910390a25050005b600080fd5b34801561020457600080fd5b5061021f600480360381019061021a91906115ee565b6104f0565b60405161022c9190611a5a565b60405180910390f35b34801561024157600080fd5b5061024a61052f565b6040516102579190611c09565b60405180910390f35b34801561026c57600080fd5b5061028760048036038101906102829190611582565b610539565b005b34801561029557600080fd5b5061029e610742565b6040516102ab9190611b27565b60405180910390f35b3480156102c057600080fd5b506102db60048036038101906102d691906115ee565b6107d4565b005b3480156102e957600080fd5b5061030460048036038101906102ff9190611559565b610a65565b6040516103119190611b0c565b60405180910390f35b34801561032657600080fd5b5061032f610a85565b60405161033c9190611c09565b60405180910390f35b34801561035157600080fd5b5061036c60048036038101906103679190611617565b610a92565b6040516103799190611b0c565b60405180910390f35b34801561038e57600080fd5b50610397610ac1565b6040516103a49190611a5a565b60405180910390f35b3480156103b957600080fd5b506103d460048036038101906103cf91906115ee565b610ae7565b6040516103e49493929190611a9e565b60405180910390f35b3480156103f957600080fd5b50610414600480360381019061040f91906115ee565b610bdc565b005b34801561042257600080fd5b5061042b610e9c565b6040516104389190611b27565b60405180910390f35b34801561044d57600080fd5b50610456610f2a565b6040516104639190611c09565b60405180910390f35b34801561047857600080fd5b50610481610f30565b60405161048e9190611aea565b60405180910390f35b3480156104a357600080fd5b506104be60048036038101906104b991906115ee565b61109c565b6040516104cb9190611c09565b60405180910390f35b6104ee60048036038101906104e991906115ee565b61119d565b005b6001818154811061050057600080fd5b906000526020600020016000915054906101000a900473ffffffffffffffffffffffffffffffffffffffff1681565b6000600254905090565b600560003373ffffffffffffffffffffffffffffffffffffffff1673ffffffffffffffffffffffffffffffffffffffff16815260200190815260200160002060009054906101000a900460ff166105c5576040517f08c379a00000000000000000000000000000000000000000000000000000000081526004016105bc90611ba9565b60405180910390fd5b600460405180608001604052808673ffffffffffffffffffffffffffffffffffffffff16815260200185815260200184848080601f016020809104026020016040519081016040528093929190818152602001838380828437600081840152601f19601f82011690508083019250505050505050815260200160001515815250908060018154018082558091505060019003906000526020600020906004020160009091909190915060008201518160000160006101000a81548173ffffffffffffffffffffffffffffffffffffffff021916908373ffffffffffffffffffffffffffffffffffffffff1602179055506020820151816001015560408201518160020190805190602001906106db929190611442565b5060608201518160030160006101000a81548160ff021916908315150217905550505060016004805490506107109190611d76565b7f08324b3d745b914e3abd4ffbfead91e3b78391a98c173202129215ab933adfbe60405160405180910390a250505050565b60606000805461075190611e25565b80601f016020809104026020016040519081016040528092919081815260200182805461077d90611e25565b80156107ca5780601f1061079f576101008083540402835291602001916107ca565b820191906000526020600020905b8154815290600101906020018083116107ad57829003601f168201915b5050505050905090565b600560003373ffffffffffffffffffffffffffffffffffffffff1673ffffffffffffffffffffffffffffffffffffffff16815260200190815260200160002060009054906101000a900460ff16610860576040517f08c379a000000000000000000000000000000000000000000000000000000000815260040161085790611ba9565b60405180910390fd5b8060048054905081106108a8576040517f08c379a000000000000000000000000000000000000000000000000000000000815260040161089f90611bc9565b60405180910390fd5b81600481815481106108e3577f4e487b7100000000000000000000000000000000000000000000000000000000600052603260045260246000fd5b906000526020600020906004020160030160009054906101000a900460ff1615610942576040517f08c379a000000000000000000000000000000000000000000000000000000000815260040161093990611b49565b60405180910390fd5b60016006600085815260200190815260200160002060003373ffffffffffffffffffffffffffffffffffffffff1673ffffffffffffffffffffffffffffffffffffffff16815260200190815260200160002060006101000a81548160ff02191690831515021790556109b357600080fd5b60006006600085815260200190815260200160002060003373ffffffffffffffffffffffffffffffffffffffff1673ffffffffffffffffffffffffffffffffffffffff16815260200190815260200160002060006101000a81548160ff021916908315150217905550823373ffffffffffffffffffffffffffffffffffffffff167fec9ab91322523c899ede7830ec9bfc992b5981cdcc27b91162fb23de5791117b60405160405180910390a3505050565b60056020528060005260406000206000915054906101000a900460ff1681565b6000600180549050905090565b60066020528160005260406000206020528060005260406000206000915091509054906101000a900460ff1681565b600360009054906101000a900473ffffffffffffffffffffffffffffffffffffffff1681565b60048181548110610af757600080fd5b90600052602060002090600402016000915090508060000160009054906101000a900473ffffffffffffffffffffffffffffffffffffffff1690806001015490806002018054610b4690611e25565b80601f0160208091040260200160405190810160405280929190818152602001828054610b7290611e25565b8015610bbf5780601f10610b9457610100808354040283529160200191610bbf565b820191906000526020600020905b815481529060010190602001808311610ba257829003601f168201915b5050505050908060030160009054906101000a900460ff16905084565b600560003373ffffffffffffffffffffffffffffffffffffffff1673ffffffffffffffffffffffffffffffffffffffff16815260200190815260200160002060009054906101000a900460ff16610c68576040517f08c379a0000000000000000000000000000000000000000000000000000000008152600401610c5f90611ba9565b60405180910390fd5b806004805490508110610cb0576040517f08c379a0000000000000000000000000000000000000000000000000000000008152600401610ca790611bc9565b60405180910390fd5b816006600082815260200190815260200160002060003373ffffffffffffffffffffffffffffffffffffffff1673ffffffffffffffffffffffffffffffffffffffff16815260200190815260200160002060009054906101000a900460ff1615610d4f576040517f08c379a0000000000000000000000000000000000000000000000000000000008152600401610d4690611be9565b60405180910390fd5b8260048181548110610d8a577f4e487b7100000000000000000000000000000000000000000000000000000000600052603260045260246000fd5b906000526020600020906004020160030160009054906101000a900460ff1615610de9576040517f08c379a0000000000000000000000000000000000000000000000000000000008152600401610de090611b49565b60405180910390fd5b60016006600086815260200190815260200160002060003373ffffffffffffffffffffffffffffffffffffffff1673ffffffffffffffffffffffffffffffffffffffff16815260200190815260200160002060006101000a81548160ff021916908315150217905550833373ffffffffffffffffffffffffffffffffffffffff167f90ec57f18fa7b15c6b8d5e4d1deb90796c74b2ff23d4d0cecad0cb42a96b312860405160405180910390a350505050565b60008054610ea990611e25565b80601f0160208091040260200160405190810160405280929190818152602001828054610ed590611e25565b8015610f225780601f10610ef757610100808354040283529160200191610f22565b820191906000526020600020905b815481529060010190602001808311610f0557829003601f168201915b505050505081565b60025481565b60606004805480602002602001604051908101604052809291908181526020016000905b8282101561109357838290600052602060002090600402016040518060800160405290816000820160009054906101000a900473ffffffffffffffffffffffffffffffffffffffff1673ffffffffffffffffffffffffffffffffffffffff1673ffffffffffffffffffffffffffffffffffffffff16815260200160018201548152602001600282018054610fe790611e25565b80601f016020809104026020016040519081016040528092919081815260200182805461101390611e25565b80156110605780601f1061103557610100808354040283529160200191611060565b820191906000526020600020905b81548152906001019060200180831161104357829003601f168201915b505050505081526020016003820160009054906101000a900460ff16151515158152505081526020019060010190610f54565b50505050905090565b6000805b60018054905081101561119757600660008481526020019081526020016000206000600183815481106110fc577f4e487b7100000000000000000000000000000000000000000000000000000000600052603260045260246000fd5b9060005260206000200160009054906101000a900473ffffffffffffffffffffffffffffffffffffffff1673ffffffffffffffffffffffffffffffffffffffff1673ffffffffffffffffffffffffffffffffffffffff16815260200190815260200160002060009054906101000a900460ff1615611184576001826111819190611cc6565b91505b808061118f90611e57565b9150506110a0565b50919050565b8060048054905081106111e5576040517f08c379a00000000000000000000000000000000000000000000000000000000081526004016111dc90611bc9565b60405180910390fd5b8160048181548110611220577f4e487b7100000000000000000000000000000000000000000000000000000000600052603260045260246000fd5b906000526020600020906004020160030160009054906101000a900460ff161561127f576040517f08c379a000000000000000000000000000000000000000000000000000000000815260040161127690611b49565b60405180910390fd5b60025461128b8461109c565b10156112cc576040517f08c379a00000000000000000000000000000000000000000000000000000000081526004016112c390611b69565b60405180910390fd5b600060048481548110611308577f4e487b7100000000000000000000000000000000000000000000000000000000600052603260045260246000fd5b9060005260206000209060040201905060018160030160006101000a81548160ff02191690831515021790555060008160000160009054906101000a900473ffffffffffffffffffffffffffffffffffffffff1673ffffffffffffffffffffffffffffffffffffffff168260010154836002016040516113889190611a43565b60006040518083038185875af1925050503d80600081146113c5576040519150601f19603f3d011682016040523d82523d6000602084013e6113ca565b606091505b505090508061140e576040517f08c379a000000000000000000000000000000000000000000000000000000000815260040161140590611b89565b60405180910390fd5b847fddb556f1d2c1ec821e910b019d3685b229db152a0ecd517ca7e24b8bd713928960405160405180910390a25050505050565b82805461144e90611e25565b90600052602060002090601f01602090048101928261147057600085556114b7565b82601f1061148957805160ff19168380011785556114b7565b828001600101855582156114b7579182015b828111156114b657825182559160200191906001019061149b565b5b5090506114c491906114c8565b5090565b5b808211156114e15760008160009055506001016114c9565b5090565b6000813590506114f481611f0f565b92915050565b60008083601f84011261150c57600080fd5b8235905067ffffffffffffffff81111561152557600080fd5b60208301915083600182028301111561153d57600080fd5b9250929050565b60008135905061155381611f26565b92915050565b60006020828403121561156b57600080fd5b6000611579848285016114e5565b91505092915050565b6000806000806060858703121561159857600080fd5b60006115a6878288016114e5565b94505060206115b787828801611544565b935050604085013567ffffffffffffffff8111156115d457600080fd5b6115e0878288016114fa565b925092505092959194509250565b60006020828403121561160057600080fd5b600061160e84828501611544565b91505092915050565b6000806040838503121561162a57600080fd5b600061163885828601611544565b9250506020611649858286016114e5565b9150509250929050565b600061165f83836119c2565b905092915050565b61167081611daa565b82525050565b61167f81611daa565b82525050565b600061169082611c49565b61169a8185611c77565b9350836020820285016116ac85611c24565b8060005b858110156116e857848403895281516116c98582611653565b94506116d483611c6a565b925060208a019950506001810190506116b0565b50829750879550505050505092915050565b61170381611dbc565b82525050565b61171281611dbc565b82525050565b600061172382611c54565b61172d8185611c88565b935061173d818560208601611df2565b61174681611efe565b840191505092915050565b600061175c82611c54565b6117668185611c99565b9350611776818560208601611df2565b61177f81611efe565b840191505092915050565b6000815461179781611e25565b6117a18186611caa565b945060018216600081146117bc57600181146117cd57611800565b60ff19831686528186019350611800565b6117d685611c34565b60005b838110156117f8578154818901526001820191506020810190506117d9565b838801955050505b50505092915050565b600061181482611c5f565b61181e8185611cb5565b935061182e818560208601611df2565b61183781611efe565b840191505092915050565b600061184f601883611cb5565b91507f7468697320747820616c726561647920657865637574656400000000000000006000830152602082019050919050565b600061188f601483611cb5565b91507f617070726f76616c73203c2072657175697265640000000000000000000000006000830152602082019050919050565b60006118cf600983611cb5565b91507f7478206661696c696400000000000000000000000000000000000000000000006000830152602082019050919050565b600061190f602083611cb5565b91507f6d73672e73656e646572206d757374206265206f776e657220616464726573736000830152602082019050919050565b600061194f601183611cb5565b91507f747820646f6573206e6f742065786973740000000000000000000000000000006000830152602082019050919050565b600061198f601383611cb5565b91507f747820616c726561647920617070726f766564000000000000000000000000006000830152602082019050919050565b60006080830160008301516119da6000860182611667565b5060208301516119ed6020860182611a25565b5060408301518482036040860152611a058282611718565b9150506060830151611a1a60608601826116fa565b508091505092915050565b611a2e81611de8565b82525050565b611a3d81611de8565b82525050565b6000611a4f828461178a565b915081905092915050565b6000602082019050611a6f6000830184611676565b92915050565b6000604082019050611a8a6000830185611676565b611a976020830184611a34565b9392505050565b6000608082019050611ab36000830187611676565b611ac06020830186611a34565b8181036040830152611ad28185611751565b9050611ae16060830184611709565b95945050505050565b60006020820190508181036000830152611b048184611685565b905092915050565b6000602082019050611b216000830184611709565b92915050565b60006020820190508181036000830152611b418184611809565b905092915050565b60006020820190508181036000830152611b6281611842565b9050919050565b60006020820190508181036000830152611b8281611882565b9050919050565b60006020820190508181036000830152611ba2816118c2565b9050919050565b60006020820190508181036000830152611bc281611902565b9050919050565b60006020820190508181036000830152611be281611942565b9050919050565b60006020820190508181036000830152611c0281611982565b9050919050565b6000602082019050611c1e6000830184611a34565b92915050565b6000819050602082019050919050565b60008190508160005260206000209050919050565b600081519050919050565b600081519050919050565b600081519050919050565b6000602082019050919050565b600082825260208201905092915050565b600082825260208201905092915050565b600082825260208201905092915050565b600081905092915050565b600082825260208201905092915050565b6000611cd182611de8565b9150611cdc83611de8565b9250827fffffffffffffffffffffffffffffffffffffffffffffffffffffffffffffffff03821115611d1157611d10611ea0565b5b828201905092915050565b6000611d2782611de8565b9150611d3283611de8565b9250817fffffffffffffffffffffffffffffffffffffffffffffffffffffffffffffffff0483118215151615611d6b57611d6a611ea0565b5b828202905092915050565b6000611d8182611de8565b9150611d8c83611de8565b925082821015611d9f57611d9e611ea0565b5b828203905092915050565b6000611db582611dc8565b9050919050565b60008115159050919050565b600073ffffffffffffffffffffffffffffffffffffffff82169050919050565b6000819050919050565b60005b83811015611e10578082015181840152602081019050611df5565b83811115611e1f576000848401525b50505050565b60006002820490506001821680611e3d57607f821691505b60208210811415611e5157611e50611ecf565b5b50919050565b6000611e6282611de8565b91507fffffffffffffffffffffffffffffffffffffffffffffffffffffffffffffffff821415611e9557611e94611ea0565b5b600182019050919050565b7f4e487b7100000000000000000000000000000000000000000000000000000000600052601160045260246000fd5b7f4e487b7100000000000000000000000000000000000000000000000000000000600052602260045260246000fd5b6000601f19601f8301169050919050565b611f1881611daa565b8114611f2357600080fd5b50565b611f2f81611de8565b8114611f3a57600080fd5b5056fea2646970667358221220ed940b336461d3a7f505217aacc3fe68b9ec59824137fc8fe226d83327d2885164736f6c63430008000033",
  "immutableReferences": {},
  "source": "// SPDX-License-Identifier: MIT\npragma solidity >=0.4.22 <0.9.0;\n\nimport './ERC20/MyToken.sol';\n\n/**\n * MultiSigWallet\n */\ncontract MultiSigWallet {\n\n  // \n  struct Transaction {\n    // \n    address to;\n    // \n    uint value;\n    // \n    bytes data;\n    // \n    bool executed;\n  }\n\n  // \n  string public walletName;\n  // Owner\n  address[] public owners;\n  // \n  uint public required;\n  // WDToken address\n  address public WDTAddr;\n  // \n  Transaction[] public transactions;\n  \n  // ownermap\n  mapping(address => bool) public isOwner;\n  // IDonwermap\n  mapping(uint => mapping(address => bool)) public approved;\n\n  // \n  event Deposit(address indexed sender, uint amount);\n  event Submit(uint indexed txId);\n  event Approve(address indexed owner, uint indexed txId);\n  event Revoke(address indexed owner, uint indexed txId);\n  event Execute(uint indexed txId);\n\n  // owner\n  modifier onlyOwner() {\n    require(isOwner[msg.sender], \"msg.sender must be owner address\");\n    _;\n  }\n\n  // ID\n  modifier txExists(uint _txId) {\n    require(_txId < transactions.length, \"tx does not exist\");\n    _;\n  }\n\n  // \n  modifier notApproved(uint _txId) {\n    require(!approved[_txId][msg.sender], \"tx already approved\");\n    _;\n  }\n\n  // ID\n  modifier notExecuted(uint _txId) {\n    require(!transactions[_txId].executed, \"this tx already executed\");\n    _;\n  }\n\n  /**\n   * \n   * @param _name \n   * @param _owners owner\n   * @param _required \n   * @param _WDTAddr WDT\n   */\n  constructor(string memory _name, address[] memory _owners, uint _required, address _WDTAddr) {\n    // \n    require(_owners.length > 0, \"number of owner addresses must be more than zero!!\");\n    require(_required > 0 && _required <= _owners.length, \"invalid required number of owners\");\n\n    // ownermap\n    for(uint i; i < _owners.length; i++) {\n      // owner\n      address owner = _owners[i];\n      // owner\n      require(owner != address(0), \"invalid address\");\n      // \n      require(!isOwner[owner], \"owner is not unique\");\n      // map\n      isOwner[owner] = true;\n      owners.push(owner);\n    }\n\n    // \n    walletName = _name;\n    // \n    required = _required;\n    // WDT \n    WDTAddr = _WDTAddr;\n  }\n\n  /**\n   * \n   */\n  receive() external payable {\n    // token\n    MyToken token = MyToken(WDTAddr);\n    // amount\n    uint256 amount = msg.value * 100;\n    // mint WDT \n    token.mint(msg.sender, amount);\n    // \n    emit Deposit(msg.sender, msg.value);\n  }\n\n  /**\n   * \n   * @param _to \n   * @param _value \n   * @param _data \n   */\n  function submit(address _to, uint _value, bytes calldata _data) external onlyOwner {\n    // Transaction\n    transactions.push(Transaction({\n      to: _to,\n      value: _value,\n      data: _data,\n      executed: false\n    }));\n    // \n    emit Submit(transactions.length - 1);\n  }\n\n  /**\n   * ID\n   * @param _txId ID\n   */\n  function approve(uint _txId) \n    external\n    onlyOwner\n    txExists(_txId)\n    notApproved(_txId)\n    notExecuted(_txId)\n  {\n    // \n    approved[_txId][msg.sender] = true;\n    // \n    emit Approve(msg.sender, _txId);\n  }\n\n  /**\n   * ID\n   * @param _txId ID\n   */\n  function _getApprovalCount(uint _txId) public view returns (uint count) {\n    // \n    for(uint i; i < owners.length; i++) {\n      // count\n      if (approved[_txId][owners[i]]) {\n        count += 1;\n      }\n    }\n  }\n\n  /**\n   * \n   * @param _txId ID\n   */\n  function execute(uint _txId) payable external txExists(_txId) notExecuted(_txId) {\n    // \n    require(_getApprovalCount(_txId) >= required, \"approvals < required\");\n    // \n    Transaction storage transaction = transactions[_txId];\n    // \n    transaction.executed = true;\n    // \n    (bool success, ) = payable(transaction.to).call{value: transaction.value}(\n      transaction.data\n    );\n    // \n    require(success, \"tx failid\");\n    // \n    emit Execute(_txId);\n  }\n\n  /**\n   * \n   * @param _txId ID\n   */\n  function revoke(uint _txId) external onlyOwner txExists(_txId) notExecuted(_txId) {\n    // \n    require(approved[_txId][msg.sender] = true);\n    // \n    approved[_txId][msg.sender] = false;\n    // \n    emit Revoke(msg.sender, _txId);\n  }\n\n  /**\n   * \n   */\n  function getName() public view returns (string memory) {\n    return walletName;\n  }\n\n  /**\n   * \n   */\n  function getRequired() public view returns (uint) {\n    return required;\n  }\n\n  /**\n   * owner\n   */\n  function getOwnersCount() public view returns (uint) {\n    return owners.length;\n  }\n\n  /**\n   * \n   */\n  function getTxs() public view returns (Transaction[] memory) {\n    return transactions;\n  }\n}\n",
  "sourcePath": "/Users/harukikondo/git/MultiSigWalletContract/backend/contracts/MultiSigWallet.sol",
  "compiler": {
    "name": "solc",
    "version": "0.8.0+commit.c7dfd78e.Emscripten.clang"
  },
  "schemaVersion": "3.4.4",
  "updatedAt": "2022-07-26T12:51:54.510Z",
  "devdoc": {
    "kind": "dev",
    "methods": {
      "_getApprovalCount(uint256)": {
        "params": {
          "_txId": "ID"
        }
      },
      "approve(uint256)": {
        "params": {
          "_txId": "ID"
        }
      },
      "constructor": {
        "params": {
          "_WDTAddr": "WDT",
          "_name": "",
          "_owners": "owner",
          "_required": ""
        }
      },
      "execute(uint256)": {
        "params": {
          "_txId": "ID"
        }
      },
      "revoke(uint256)": {
        "params": {
          "_txId": "ID"
        }
      },
      "submit(address,uint256,bytes)": {
        "params": {
          "_data": "",
          "_to": "",
          "_value": ""
        }
      }
    },
    "version": 1
  },
  "userdoc": {
    "kind": "user",
    "methods": {
      "_getApprovalCount(uint256)": {
        "notice": "ID"
      },
      "approve(uint256)": {
        "notice": "ID"
      },
      "constructor": {
        "notice": ""
      },
      "execute(uint256)": {
        "notice": ""
      },
      "getName()": {
        "notice": ""
      },
      "getOwnersCount()": {
        "notice": "owner"
      },
      "getRequired()": {
        "notice": ""
      },
      "getTxs()": {
        "notice": ""
      },
      "revoke(uint256)": {
        "notice": ""
      },
      "submit(address,uint256,bytes)": {
        "notice": ""
      }
    },
    "notice": "MultiSigWallet",
    "version": 1
  }
}